:020000040800F2
:1000000090040020D5000008550E0008EF0C0008F1
:1000100000000000000000000000000000000000E0
:100020000000000000000000000000009F0E00081B
:1000300000000000000000009D0E0008A10E000856
:100040000501000800000000050100080501000886
:100050000501000805010008050100080501000868
:100060000000000005010008050100080501000866
:1000700005010008690F00080501000800000000E4
:10008000790F0008000000000000000005010008D2
:100090000000000005010008050100080501000836
:1000A0000000000005010008000000000501000834
:1000B0000501000800000000000000000501000824
:1000C0000348854600F048F80048004791100008B2
:1000D000900400200C4880F308880C480168090E41
:1000E0000B4A914205D10B480B4901600B480C4962
:1000F00001600C4880470C480047FEE7FEE7FEE73A
:10010000FEE7FEE7FEE70000900400200400000088
:100110001F00000018100240010000000000014014
:1001200000000000050F0008C100000830B50B46B4
:10013000014600202022012409E00D46D5409D42C1
:1001400005D31D469540491B254695404019154647
:10015000521E002DF1DC30BD064C0125064E05E097
:10016000E36807CC2B430C3C98471034B442F7D3D8
:10017000FFF7AAFF041300082413000831B500F0AC
:10018000BBF8009C0546601C00D0641C00F0B4F86D
:10019000401BA042FAD338BDF8B500238DE00124FE
:1001A0009C40A44622407DD04C68022C01D0122CE9
:1001B0000CD1DC08A40027183C6A5D07ED0E0F2661
:1001C000AE40B4430E69AE4026433E6205685E0011
:1001D0000324B4400F79A543BF07BF0FB7402F4397
:1001E00007604D68012D05D0022D03D0112D01D0DF
:1001F000122D0ED18568CF68A543B7402F43876085
:1002000047686546AF430D79ED06ED0F9D403D43D0
:100210004560C568A5438C68B4402C43C4604C68F5
:10022000E40049D5284CA56901263543A561A46998
:100230009D0834400094254CAD002F19BC689D07E3
:100240002E0F0F25B540AC430925ED06A84201D17C
:1002500000250FE01E4DA84201D101250AE01D4DE9
:10026000A84201D1022505E01B4DA84201D103257A
:1002700000E00525B5402543BD60184C25684E6853
:100280009543F60300D51543256065684E68954390
:10029000B60300D515436560A5684E689543F60220
:1002A00002D500E008E01543A560E5684E68954377
:1002B000B60200D51543E5605B1C0A681446DC40B5
:1002C00000D06CE7F8BD00000010024000000140C3
:1002D0000004004800080048000C004800040140E9
:1002E0000069084000D001207047002A01D08161D8
:1002F0007047816270470000014800687047000045
:100300000400002002480168491C01607047000099
:100310000400002010B50648016810221143016056
:10032000002000F007F800F017F8002010BD0000D2
:100330000020024010B5044600F0D4F87D21C90029
:10034000FFF7F4FE00F0C8FA00222146501E00F02C
:100350002FF8002010BD000008B50F488169012268
:1003600011438161816911400091C26901040A430E
:10037000C261C0690022084000901146501F00F081
:1003800017F800221146901E00F012F800221146C4
:10039000501E00F00DF808BD00100240C106C90E45
:1003A00001208840014908607047000000E100E03A
:1003B00010B500F051FD10BDF8B5054644480E4695
:1003C0000068C007C00FB0420AD24148016849081E
:1003D0004900314301600068C007C00FB0425CD1E2
:1003E00028783C4C800705D56068F0218843A968CF
:1003F000084360602878C0073FD06868012813D0A0
:100400002168022813D08907002946DA6168890823
:10041000890001436160FFF76FFF696807460129A2
:100420000DD0022917D024E021688903ECE7890167
:10043000EAE7FFF761FFC11B2748814217D86068D0
:100440000007800F0128F4D117E0FFF755FFC11B0B
:10045000214881420BD860680007800F0228F4D140
:100460000BE0FFF749FFC11B1B48814201D9032064
:10047000F8BD60680007800FF3D115480168C9070F
:10048000C90FB1420BD901684908490031430160E5
:100490000068C007C00FB04201D00120F8BD287825
:1004A000400706D56068072109028843E9680843C8
:1004B000606000F01DF86168084A0906090F515C88
:1004C000C840074908600020FFF734FF0020F8BD4E
:1004D000002002400010024088130000F4120008BF
:1004E0000800002001480068704700000800002054
:1004F00010B511A30FCB88B06C460FC412A30FCB5D
:100500000FC415494A680C20134603401348042BB6
:100510000FD0082B0DD193021B0F6C46E45CC96A07
:1005200004AB0907090FD203595C920FFFF7FEFDD8
:10053000604308B010BD0000020304050607080967
:100540000A0B0C0D0E0F101001020304050607081C
:10055000090A0B0C0D0E0F100010024000127A0059
:10056000FEB504460078D24DC00749D06868000740
:10057000800F012820D068680007800F022804D16E
:100580006868C003800F022816D00120626800044A
:10059000012A18D08100002A01D0052A17D02A6824
:1005A00082432A60286888432860606800281BD03E
:1005B000FFF7A2FE064613E02868800320D5606896
:1005C000002876D01CE0296801432960EDE72A68FD
:1005D0000A432A60F7E7FFF78FFE801B642869D87B
:1005E00028688003F7D50BE0FFF786FE064604E097
:1005F000FFF782FE801B6428F1D828688003F7D4B7
:1006000020780126800700283DDA68680007800FFF
:1006100013D068680007800F022804D16868C003FF
:10062000800F012809D0E068002828681CD03043DA
:100630002860FFF761FE07460BE0286880070BD5AE
:10064000E068012835D107E0FFF756FEC01B0228FD
:10065000C5D828688007F7D52868F821884321691C
:10066000C900084328600EE0400840002860FFF7FA
:1006700043FE074604E0FFF73FFEC01B0228AED84A
:1006800028688007F7D42078000723D5E069002880
:10069000686A10D030436862FFF72EFE074604E018
:1006A000FFF72AFEC01B022899D8686A8007F7D591
:1006B00010E0FAE0A4E0400840006862FFF71CFE8A
:1006C000074604E0FFF718FEC01B022887D8686AB7
:1006D0008007F7D4207804274007002860DA00203C
:1006E0000190E869C00008D4E969B8060143E961EE
:1006F000E96901400120009101906E480168C90537
:1007000011D40168821511430160FFF7F5FD0090D7
:1007100005E0FFF7F1FD0099401A642870D865489C
:100720000068C005F5D5A06801280AD0002801D0CE
:10073000052810D0286A400840002862286AB8437B
:1007400001E0286A30432862A068002812D0FFF731
:10075000D3FD00900AE0286A38432862F1E7FFF7EA
:10076000CBFD0099411A5448814249D8286A800734
:10077000F5D50DE0FFF7C0FD009006E0FFF7BCFDEA
:100780000099411A4C4881423AD8286A8007F5D42A
:100790000198002804D0E969012000078143E9613C
:1007A0002078C00635D5606901280CD0401D686BE3
:1007B00023D038436863686B400840006863FFF7E4
:1007C0009BFD064622E0686B38436863686B3043E4
:1007D0006863FFF791FD064604E0FFF78DFD801B7F
:1007E00002285BD8686B8007F7D5686BF8218843CF
:1007F000A169C900084368630BE0B8436863F4E784
:100800004CE0FFF779FD801B022847D8686B800712
:10081000F7D4206A002846D069680907890F0229A1
:1008200043D0012636060228286805D0B043286048
:10083000FFF762FD044633E0B0432860FFF75CFD3C
:10084000074604E0FFF758FDC01B022826D8286899
:100850008001F7D4E86AE16A000900010843E86210
:10086000616AA06A084369687B22D2039143084306
:100870006860286830432860FFF73EFD044604E0C6
:10088000FFF73AFD001B022808D828688001F7D539
:1008900009E0FFF731FD001B022801D90320FEBD4E
:1008A00028688001F5D40020FEBD0120FEBD0000B7
:1008B0000010024000700040881300000422044928
:1008C0000428086902D09043086170471043FBE791
:1008D00000E000E070470000094910B5401E884262
:1008E00001D9012010BD074C60610321081F00F0F1
:1008F000B3FA0020A06107202061002010BD000095
:10090000FFFFFF0000E000E010B5FFF7E3FF10BDC0
:100910007047704770B502462032137F012B1BD001
:100920000123137702245477046865687026B54361
:100930006560046865680E68354365600468A5688D
:100940008026B543A5600068846849680C438460CC
:1009500053770020107770BD022070BD70B5040081
:1009600005D025462035687F002802D006E001200A
:1009700070BD00202877204600F00AF80220687732
:10098000211D206800F000FB01206877002070BD69
:1009900008B5134A0168134891420DD18269C11408
:1009A0000A438261806900220840009011460D20B0
:1009B000FFF7FEFC0D200FE00B4A91420ED1C269F9
:1009C00002210A43C261C06900220840009011461A
:1009D0001020FFF7EDFC1020FFF7E0FC08BD000041
:1009E000002C014000100240000400400222014699
:1009F00020314A7702681368012003431360487767
:100A0000002070470268D36801210B43D36000685F
:100A100002680A430260002070470000022102467B
:100A2000203251770168086A074B184207D1086ADB
:100A30009B10184203D1086840084000086001205C
:100A40005077002070470000111100000168CA684B
:100A500052085200CA600068016A064A114207D172
:100A6000016A9210114203D10168490849000160EE
:100A70000020704711110000F8B5054604462035E6
:100A8000287F012817D001272F7702206877226856
:100A900090687726FF23B0431B0298439060086854
:100AA000502837D00EDC202857D006DC00284ED046
:100AB000102840D14EE00220F8BD302850D0402808
:100AC00039D13CE060282DD0702817D001221203C4
:100AD000801A0ED090422ED1CB684A68896820686F
:100AE00000F08EFA20688168012292031143816030
:100AF00021E020688168C908C900F8E7CB684A6826
:100B00008968206800F07CFA21688868B043304327
:100B1000886010E0CA684968206800F084FA5021B3
:100B2000206806E0CA684968206800F08DFA6021F4
:100B3000206800F070FA6F7700202877F8BDCA6847
:100B40004968206800F06FFA40212068F1E7002131
:100B50002068EEE710212068EBE720212068E8E715
:100B600030212068E5E7704770B5044600680169E8
:100B70000025C9438907002915DBC168C9438907D6
:100B800011D4E91E01610120207720688069800767
:100B9000204602D0FFF7E7FF04E000F096F8204679
:100BA00000F094F8257720680169C943490717D4F4
:100BB000C168C943490713D40421C9430161022014
:100BC0002077206880698005800F204602D0FFF7DB
:100BD000CAFF04E000F079F8204600F077F82577A6
:100BE00020680169C943090716D4C168C9430907C8
:100BF00012D40821C9430161042020772068C0690C
:100C00008007204602D0FFF7AEFF04E000F05DF859
:100C1000204600F05BF8257720680169C943C906C2
:100C200017D4C168C943C90613D41021C94301614F
:100C3000082020772068C0698005800F204602D0F8
:100C4000FFF791FF04E000F040F8204600F03EF886
:100C5000257720680169C943C90708D1C168C9431C
:100C6000C90704D1891E0161204600F031F82068CF
:100C70000169C943090609D4C168C943090605D4F5
:100C80008021C94301612046FFF742FE20680169C7
:100C9000C943490609D4C168C943490605D440215E
:100CA000C9430161204600F021F820680169C94369
:100CB000890609D4C168C943890605D42021C943DE
:100CC00001612046FFF725FE70BD704770470000A8
:100CD000044900680968884203D103490878401C28
:100CE000087070470C000020000000207047FEE7ED
:100CF00030B5164887B04269012189050A4342612F
:100D000042690A400592426949110A4342614069B9
:100D100009250840ED060590012202212846FFF72B
:100D2000E4FA022000900120002401900294694618
:100D300003942846FFF730FA482000900194694652
:100D400002942846FFF728FA07B030BD0010024091
:100D500010B5194886B0174901600024174984600E
:100D600041600461446116498461C160FFF7F6FD8A
:100D7000002803D0412113A000F079F901200003DD
:100D8000009069460C48FFF777FE002803D0472102
:100D90000CA000F06CF9049404A907480594FFF72F
:100DA000B9FD002803D04E2106A000F060F906B07E
:100DB00010BD0000002C01400C0000203F9C0000F2
:100DC0005FEA00002E2E2F5372632F74696D2E631D
:100DD0000000000010B5184886B0164901600024D4
:100DE000164984604160046115498461C160FFF760
:100DF000B5FD002803D0602112A000F038F90120D1
:100E00000003009069460C48FFF736FE002803D027
:100E100066210CA000F02BF9049404A9064805945F
:100E2000FFF778FD002803D06D2106A000F01FF920
:100E300006B010BD000400404C0000203F1F000021
:100E4000E7FD00002E2E2F5372632F74696D2E6301
:100E500000000000704700008307FF22DB0E9A406D
:100E60008907090E994000280BDA0007000F08389F
:100E7000830808489B001818C36993430B43C36158
:100E80007047830804489B001B1818689043084368
:100E90001860704700ED00E000E400E07047704724
:100EA00010B5FFF72FFAFFF72FFD10BD30B591B049
:100EB000012500240095684601950894FFF750FB32
:100EC000002800D0FEE707200C900E9400210D951D
:100ED0000F940CA8FFF770FA002800D0FEE7FFF788
:100EE00001FB7D21C900FFF721F9FFF7F5FC042084
:100EF000FFF7E4FC00221146501EFFF759FA11B02B
:100F000030BD0000154801680122114301604168AD
:100F1000134A114041600168124A114001600168A2
:100F2000012292049143016041683F2212049143DF
:100F30004160C16A09090901C162016BFF22943253
:100F400091430163016B802211430163416B4908A6
:100F50004900416300218160704700000010024099
:100F60000CB8FF08FFFFF6FE10B50248FFF7FCFDC6
:100F700010BD00000C00002010B50248FFF7F4FD82
:100F800010BD00004C00002070B50268174B184ED1
:100F9000984201D0B04203D17024A2434C6822434E
:100FA000144C154D984208D0B04206D0134EB042B2
:100FB00003D0A04201D0A84204D103263602B24396
:100FC000CE6832438026B2434E69324302608A685B
:100FD000C2620A688262984203D0A04201D0A8424D
:100FE00001D1096901630121416170BD002C0140FB
:100FF000000400400044014000480140002000403F
:1010000030B58468FF252D021B021343AC430B430C
:101010002343836030BD826870239A430A430721CB
:101020000A438260704730B5036A046A640864004A
:1010300004628469F025AC43120122430A24A343CD
:101040000B438261036230BD30B5036A1024A343B1
:1010500003628469036A0F252D031203AC43224304
:10106000A024A343090119438261016230BDFEE758
:1010700002E008C8121F08C1002AFAD17047704761
:10108000002001E001C1121F002AFBD170470000BF
:101090000EB5FFF73FF9FFF709FFFFF729FEFFF74E
:1010A00057FEFFF797FE8E4900260968B01E0861BB
:1010B0008B48FFF7A7FC00208A4F009001903878FA
:1010C00004281CD38648FFF7C1FC0924E40600224B
:1010D00002212046FFF709F98348FFF74FF8012264
:1010E00002212046FFF701F97D48002401684C6287
:1010F0000068A11E01617A48FFF784FC3C70092555
:10110000ED0640212846FFF7EBF80446B0420ED02A
:1011100000263E707248FFF799FC714801684E62E4
:101120000068B11E01616E48FFF76CFC264608217D
:101130002C462846FFF7D4F80128C0D16B4D00207B
:10114000296848622846FFF751FC2868406A0090E9
:1011500008212046FFF7C4F8012808D16348006839
:10116000406A00990190411A61488142F0D9019981
:1011700000987D25081A2D01A84203D2C82801D95C
:10118000012000E00020029058480168496A00915F
:1011900008E056480068406A00990190411A544896
:1011A000814208D808212046FFF79AF8002802D18A
:1011B00002980028EDD100990198401AA84203D264
:1011C000C82801D9012000E00020029047480168AA
:1011D000496A009108E045480068406A009901901A
:1011E000411A4348814208D808212046FFF778F881
:1011F000012802D102980028EDD100990198401AE7
:10120000A84203D2C82801D9012000E000200290A2
:1012100036480168496A009108E034480068406A2D
:1012200000990190411A3248814208D8082120468D
:10123000FFF756F8002802D102980028EDD1009956
:101240000198401AA84203D2C82801D9012000E021
:101250000020029025480168496A009108E023486F
:101260000068406A00990190411A2148814208D8DB
:1012700008212046FFF734F8012802D102980028FF
:10128000EDD100990198401AA84224D2C82822D949
:101290001348FFF7DBFB092000220221C006FFF7FD
:1012A00024F800244B252D017D20C000FEF766FFA9
:1012B000641CAC42F8D3092001220221C006FFF7CA
:1012C00014F8074901200968C04308610448FFF782
:1012D00099FB002038700548FFF7A0FBEFE60000FF
:1012E0000C0000200000002060EA00004C000020FC
:1012F0009808000000000000000000000102030444
:101300000607080924130008000000200C00000054
:1013100070100008301300080C0000208404000046
:1013200080100008000000000000000000127A0099
:04000005080000C12E
:00000001FF
